{
  "contractName": "Casino",
  "abi": [
    {
      "constant": true,
      "inputs": [
        {
          "name": "addr",
          "type": "address"
        },
        {
          "name": "roleName",
          "type": "string"
        }
      ],
      "name": "checkRole",
      "outputs": [],
      "payable": false,
      "stateMutability": "view",
      "type": "function"
    },
    {
      "constant": true,
      "inputs": [
        {
          "name": "addr",
          "type": "address"
        },
        {
          "name": "roleName",
          "type": "string"
        }
      ],
      "name": "hasRole",
      "outputs": [
        {
          "name": "",
          "type": "bool"
        }
      ],
      "payable": false,
      "stateMutability": "view",
      "type": "function"
    },
    {
      "constant": false,
      "inputs": [
        {
          "name": "_newSuperuser",
          "type": "address"
        }
      ],
      "name": "transferSuperuser",
      "outputs": [],
      "payable": false,
      "stateMutability": "nonpayable",
      "type": "function"
    },
    {
      "constant": false,
      "inputs": [],
      "name": "renounceOwnership",
      "outputs": [],
      "payable": false,
      "stateMutability": "nonpayable",
      "type": "function"
    },
    {
      "constant": true,
      "inputs": [],
      "name": "owner",
      "outputs": [
        {
          "name": "",
          "type": "address"
        }
      ],
      "payable": false,
      "stateMutability": "view",
      "type": "function"
    },
    {
      "constant": true,
      "inputs": [
        {
          "name": "_addr",
          "type": "address"
        }
      ],
      "name": "isSuperuser",
      "outputs": [
        {
          "name": "",
          "type": "bool"
        }
      ],
      "payable": false,
      "stateMutability": "view",
      "type": "function"
    },
    {
      "constant": true,
      "inputs": [],
      "name": "CASINO_TOKEN_SUPPLY",
      "outputs": [
        {
          "name": "",
          "type": "string"
        }
      ],
      "payable": false,
      "stateMutability": "view",
      "type": "function"
    },
    {
      "constant": true,
      "inputs": [],
      "name": "ROLE_SUPERUSER",
      "outputs": [
        {
          "name": "",
          "type": "string"
        }
      ],
      "payable": false,
      "stateMutability": "view",
      "type": "function"
    },
    {
      "constant": true,
      "inputs": [],
      "name": "ROLE_ORACLE",
      "outputs": [
        {
          "name": "",
          "type": "string"
        }
      ],
      "payable": false,
      "stateMutability": "view",
      "type": "function"
    },
    {
      "constant": false,
      "inputs": [
        {
          "name": "_newOwner",
          "type": "address"
        }
      ],
      "name": "transferOwnership",
      "outputs": [],
      "payable": false,
      "stateMutability": "nonpayable",
      "type": "function"
    },
    {
      "inputs": [
        {
          "name": "_initialCasinoTokenPrice",
          "type": "uint256"
        }
      ],
      "payable": false,
      "stateMutability": "nonpayable",
      "type": "constructor"
    },
    {
      "anonymous": false,
      "inputs": [
        {
          "indexed": false,
          "name": "_amount",
          "type": "uint256"
        }
      ],
      "name": "CasinoTokensSupplied",
      "type": "event"
    },
    {
      "anonymous": false,
      "inputs": [
        {
          "indexed": false,
          "name": "_utcTimestamp",
          "type": "uint256"
        },
        {
          "indexed": false,
          "name": "_price",
          "type": "uint256"
        }
      ],
      "name": "OracleInformationReceived",
      "type": "event"
    },
    {
      "anonymous": false,
      "inputs": [
        {
          "indexed": false,
          "name": "addr",
          "type": "address"
        },
        {
          "indexed": false,
          "name": "roleName",
          "type": "string"
        }
      ],
      "name": "RoleAdded",
      "type": "event"
    },
    {
      "anonymous": false,
      "inputs": [
        {
          "indexed": false,
          "name": "addr",
          "type": "address"
        },
        {
          "indexed": false,
          "name": "roleName",
          "type": "string"
        }
      ],
      "name": "RoleRemoved",
      "type": "event"
    },
    {
      "anonymous": false,
      "inputs": [
        {
          "indexed": true,
          "name": "previousOwner",
          "type": "address"
        }
      ],
      "name": "OwnershipRenounced",
      "type": "event"
    },
    {
      "anonymous": false,
      "inputs": [
        {
          "indexed": true,
          "name": "previousOwner",
          "type": "address"
        },
        {
          "indexed": true,
          "name": "newOwner",
          "type": "address"
        }
      ],
      "name": "OwnershipTransferred",
      "type": "event"
    },
    {
      "constant": false,
      "inputs": [
        {
          "name": "_address",
          "type": "address"
        }
      ],
      "name": "setCasinoTokenContractAddress",
      "outputs": [],
      "payable": false,
      "stateMutability": "nonpayable",
      "type": "function"
    },
    {
      "constant": true,
      "inputs": [],
      "name": "casinoTokenContractAddress",
      "outputs": [
        {
          "name": "",
          "type": "address"
        }
      ],
      "payable": false,
      "stateMutability": "view",
      "type": "function"
    },
    {
      "constant": false,
      "inputs": [
        {
          "name": "_newCasinoTokenPrice",
          "type": "uint256"
        }
      ],
      "name": "setCasinoTokenPrice",
      "outputs": [],
      "payable": false,
      "stateMutability": "nonpayable",
      "type": "function"
    },
    {
      "constant": true,
      "inputs": [],
      "name": "getCasinoTokenPrice",
      "outputs": [
        {
          "name": "",
          "type": "uint256"
        }
      ],
      "payable": false,
      "stateMutability": "view",
      "type": "function"
    },
    {
      "constant": false,
      "inputs": [],
      "name": "buyCasinoToken",
      "outputs": [],
      "payable": true,
      "stateMutability": "payable",
      "type": "function"
    },
    {
      "constant": false,
      "inputs": [
        {
          "name": "_sender",
          "type": "address"
        },
        {
          "name": "_origin",
          "type": "address"
        },
        {
          "name": "_value",
          "type": "uint256"
        },
        {
          "name": "_data",
          "type": "bytes"
        }
      ],
      "name": "tokenFallback",
      "outputs": [
        {
          "name": "success",
          "type": "bool"
        }
      ],
      "payable": false,
      "stateMutability": "nonpayable",
      "type": "function"
    },
    {
      "constant": false,
      "inputs": [
        {
          "name": "_receiver",
          "type": "address"
        },
        {
          "name": "_amount",
          "type": "uint256"
        }
      ],
      "name": "payout",
      "outputs": [],
      "payable": false,
      "stateMutability": "nonpayable",
      "type": "function"
    },
    {
      "constant": false,
      "inputs": [
        {
          "name": "_utcTimestamp",
          "type": "uint256"
        },
        {
          "name": "_price",
          "type": "uint256"
        }
      ],
      "name": "setInformation",
      "outputs": [],
      "payable": false,
      "stateMutability": "nonpayable",
      "type": "function"
    }
  ],
  "bytecode": "0x608060405234801561001057600080fd5b506040516020806110bc833981016040818152915160008054600160a060020a03191633908117909155838301909352600982527f737570657275736572000000000000000000000000000000000000000000000060208301529161007d916401000000006100dd810204565b6000811161008a57600080fd5b600381905560408051808201909152600681527f6f7261636c65000000000000000000000000000000000000000000000000000060208201526100d79033906401000000006100dd810204565b50610230565b610154826001836040518082805190602001908083835b602083106101135780518252601f1990920191602091820191016100f4565b51815160209384036101000a600019018019909216911617905292019485525060405193849003019092209291505064010000000061020b8102610e0c1704565b7fbfec83d64eaa953f2708271a023ab9ee82057f8f3578d548c1a4ba0b5b70048982826040518083600160a060020a0316600160a060020a0316815260200180602001828103825283818151815260200191508051906020019080838360005b838110156101cc5781810151838201526020016101b4565b50505050905090810190601f1680156101f95780820380516001836020036101000a031916815260200191505b50935050505060405180910390a15050565b600160a060020a0316600090815260209190915260409020805460ff19166001179055565b610e7d8061023f6000396000f3006080604052600436106100fb5763ffffffff7c01000000000000000000000000000000000000000000000000000000006000350416630988ca8c8114610100578063117de2fd146101695780631c46bf411461018d578063217fe6c6146101ae57806336eca4d9146102295780634c1230191461025057806357c393fa146102bf578063715018a6146102e05780638da5cb5b146102f5578063bceee05e14610326578063cf09979614610347578063dd1ade5e146103d1578063ebb4f484146103d9578063ebed73e9146103ee578063f017370314610406578063f2fde38b1461041b578063fbe671561461043c578063fe4b8f1614610451575b600080fd5b34801561010c57600080fd5b5060408051602060046024803582810135601f8101859004850286018501909652858552610167958335600160a060020a031695369560449491939091019190819084018382808284375094975061046c9650505050505050565b005b34801561017557600080fd5b50610167600160a060020a03600435166024356104da565b34801561019957600080fd5b50610167600160a060020a036004351661052c565b3480156101ba57600080fd5b5060408051602060046024803582810135601f8101859004850286018501909652858552610215958335600160a060020a03169536956044949193909101919081908401838280828437509497506105839650505050505050565b604080519115158252519081900360200190f35b34801561023557600080fd5b5061023e6105f6565b60408051918252519081900360200190f35b34801561025c57600080fd5b50604080516020601f60643560048181013592830184900484028501840190955281845261021594600160a060020a0381358116956024803590921695604435953695608494019181908401838280828437509497506105fc9650505050505050565b3480156102cb57600080fd5b50610167600160a060020a0360043516610777565b3480156102ec57600080fd5b50610167610816565b34801561030157600080fd5b5061030a610882565b60408051600160a060020a039092168252519081900360200190f35b34801561033257600080fd5b50610215600160a060020a0360043516610891565b34801561035357600080fd5b5061035c6108c6565b6040805160208082528351818301528351919283929083019185019080838360005b8381101561039657818101518382015260200161037e565b50505050905090810190601f1680156103c35780820380516001836020036101000a031916815260200191505b509250505060405180910390f35b6101676108fd565b3480156103e557600080fd5b5061035c6109e3565b3480156103fa57600080fd5b50610167600435610a08565b34801561041257600080fd5b5061035c610a42565b34801561042757600080fd5b50610167600160a060020a0360043516610a79565b34801561044857600080fd5b5061030a610aaa565b34801561045d57600080fd5b50610167600435602435610ab9565b6104d6826001836040518082805190602001908083835b602083106104a25780518252601f199092019160209182019101610483565b51815160209384036101000a6000190180199092169116179052920194855250604051938490030190922092915050610b37565b5050565b600054600160a060020a031633146104f157600080fd5b604051600160a060020a0383169082156108fc029083906000818181858888f19350505050158015610527573d6000803e3d6000fd5b505050565b600054600160a060020a0316331480610549575061054933610891565b151561055457600080fd5b6002805473ffffffffffffffffffffffffffffffffffffffff1916600160a060020a0392909216919091179055565b60006105ef836001846040518082805190602001908083835b602083106105bb5780518252601f19909201916020918201910161059c565b51815160209384036101000a6000190180199092169116179052920194855250604051938490030190922092915050610b4c565b9392505050565b60035490565b600254600090600160a060020a0316331461061657600080fd5b60408051808201825260138082527f434153494e4f5f544f4b454e5f535550504c5900000000000000000000000000602083019081529251919282918083835b602083106106755780518252601f199092019160209182019101610656565b51815160209384036101000a6000190180199092169116179052604051919093018190038120875190955087945090928392508401908083835b602083106106ce5780518252601f1990920191602091820191016106af565b6001836020036101000a038019825116818451168082178552505050505050905001915050604051809103902060001916141561076b57600054600160a060020a0386811691161480610725575061072585610891565b151561073057600080fd5b6040805184815290517f8eda3c6b9417c53878cf462ff5337c5b951237fe9c56ceb19248200f83fe8c779181900360200190a150600161076f565b5060005b949350505050565b6107a433604080519081016040528060098152602001600080516020610e3283398151915281525061046c565b600160a060020a03811615156107b957600080fd5b6107e633604080519081016040528060098152602001600080516020610e32833981519152815250610b6b565b61081381604080519081016040528060098152602001600080516020610e32833981519152815250610c8c565b50565b600054600160a060020a0316331461082d57600080fd5b60008054604051600160a060020a03909116917ff8df31144d9c2f0f6b59d69b8b98abd5459d07f2742c4df920b25aae33c6482091a26000805473ffffffffffffffffffffffffffffffffffffffff19169055565b600054600160a060020a031681565b60006108c082604080519081016040528060098152602001600080516020610e32833981519152815250610583565b92915050565b60408051808201909152601381527f434153494e4f5f544f4b454e5f535550504c5900000000000000000000000000602082015281565b60006003543481151561090c57fe5b049050600081111561081357600254604080517fbe45fd620000000000000000000000000000000000000000000000000000000081523360048201526024810184905260606044820152600e60648201527f476f6f64204c75636b20f09f8d8000000000000000000000000000000000000060848201529051600160a060020a039092169163be45fd629160a4808201926020929091908290030181600087803b1580156109b957600080fd5b505af11580156109cd573d6000803e3d6000fd5b505050506040513d602081101561052757600080fd5b6040805180820190915260098152600080516020610e32833981519152602082015281565b600054600160a060020a0316331480610a255750610a2533610891565b1515610a3057600080fd5b60008111610a3d57600080fd5b600355565b60408051808201909152600681527f6f7261636c650000000000000000000000000000000000000000000000000000602082015281565b600054600160a060020a0316331480610a965750610a9633610891565b1515610aa157600080fd5b61081381610d6d565b600254600160a060020a031690565b610af8336040805190810160405280600681526020017f6f7261636c65000000000000000000000000000000000000000000000000000081525061046c565b604080518381526020810183905281517f364bb78414e01a80e9a9e528d8f3c18efc790d7c6cd14e63fab523f2e1623233929181900390910190a15050565b610b418282610b4c565b15156104d657600080fd5b600160a060020a03166000908152602091909152604090205460ff1690565b610bd5826001836040518082805190602001908083835b60208310610ba15780518252601f199092019160209182019101610b82565b51815160209384036101000a6000190180199092169116179052920194855250604051938490030190922092915050610dea565b7fd211483f91fc6eff862467f8de606587a30c8fc9981056f051b897a418df803a82826040518083600160a060020a0316600160a060020a0316815260200180602001828103825283818151815260200191508051906020019080838360005b83811015610c4d578181015183820152602001610c35565b50505050905090810190601f168015610c7a5780820380516001836020036101000a031916815260200191505b50935050505060405180910390a15050565b610cf6826001836040518082805190602001908083835b60208310610cc25780518252601f199092019160209182019101610ca3565b51815160209384036101000a6000190180199092169116179052920194855250604051938490030190922092915050610e0c565b7fbfec83d64eaa953f2708271a023ab9ee82057f8f3578d548c1a4ba0b5b70048982826040518083600160a060020a0316600160a060020a03168152602001806020018281038252838181518152602001915080519060200190808383600083811015610c4d578181015183820152602001610c35565b600160a060020a0381161515610d8257600080fd5b60008054604051600160a060020a03808516939216917f8be0079c531659141344cd1fd0a4f28419497f9722a3daafe3b4186f6b6457e091a36000805473ffffffffffffffffffffffffffffffffffffffff1916600160a060020a0392909216919091179055565b600160a060020a0316600090815260209190915260409020805460ff19169055565b600160a060020a0316600090815260209190915260409020805460ff1916600117905556007375706572757365720000000000000000000000000000000000000000000000a165627a7a72305820064e166dc0cc5bbc0c5f883a090506a856ae26dc328d8d251a90ce60a9d2fe9a0029",
  "source": "pragma solidity ^0.4.24;\n\nimport \"openzeppelin-solidity/contracts/math/SafeMath.sol\";\nimport \"openzeppelin-solidity/contracts/ownership/Superuser.sol\";\n\nimport \"../erc223/ERC223Receiver.sol\";\n\nimport \"./CasinoToken.sol\";\n\ncontract Casino is Superuser, ERC223Receiver {\n\n    string public constant ROLE_ORACLE = \"oracle\";\n    string public constant CASINO_TOKEN_SUPPLY = \"CASINO_TOKEN_SUPPLY\";\n\n    using SafeMath for uint;\n\n    CasinoToken internal casinoTokenContract;\n    uint256 internal casinoTokenPrice;\n\n    constructor(uint256 _initialCasinoTokenPrice) public {\n        require(_initialCasinoTokenPrice > 0);\n        casinoTokenPrice = _initialCasinoTokenPrice;\n        addRole(msg.sender, ROLE_ORACLE);\n    }\n\n    event CasinoTokensSupplied(uint256 _amount);\n    event OracleInformationReceived(uint256 _utcTimestamp, uint256 _price);\n\n    // Casino Token\n\n    function setCasinoTokenContractAddress(address _address) external onlyOwnerOrSuperuser {\n        casinoTokenContract = CasinoToken(_address);\n    }\n\n    function casinoTokenContractAddress() external view returns (address) {\n        return casinoTokenContract;\n    }\n\n    function setCasinoTokenPrice(uint256 _newCasinoTokenPrice) external onlyOwnerOrSuperuser {\n        require(_newCasinoTokenPrice > 0);\n        casinoTokenPrice = _newCasinoTokenPrice;\n    }\n\n    function getCasinoTokenPrice() external view returns (uint256) {\n        return casinoTokenPrice;\n    }\n\n    function buyCasinoToken() external payable {\n        uint tokens = msg.value / casinoTokenPrice;\n        if (tokens > 0) {\n            casinoTokenContract.transfer(msg.sender, tokens, \"Good Luck ðŸ€\");\n        }\n    }\n\n    function tokenFallback(address _sender, address _origin, uint256 _value, bytes _data) public returns (bool success) {\n        require(CasinoToken(msg.sender) == casinoTokenContract);\n        // check if token is supply\n        if (keccak256(_data) == keccak256(CASINO_TOKEN_SUPPLY)) {\n            require(_sender == owner || isSuperuser(_sender));\n            emit CasinoTokensSupplied(_value);\n            return true;\n        }\n        // TODO: check if token is sold and contract has enough funds to accept the token\n        return false;\n    }\n\n    // Payout\n\n    function payout(address _receiver, uint256 _amount) external onlyOwner {\n        _receiver.transfer(_amount);\n    }\n\n    // Oracle\n\n    function setInformation(uint256 _utcTimestamp, uint256 _price) external onlyOracle {\n        emit OracleInformationReceived(_utcTimestamp, _price);\n    }\n\n    modifier onlyOracle() {\n        checkRole(msg.sender, ROLE_ORACLE);\n        _;\n    }\n\n\n}\n",
  "sourcePath": "/Users/bountin/Projects/Uni/smart_contract_casino/casino-contract/contracts/casino/Casino.sol",
  "compiler": {
    "name": "solc",
    "version": "0.4.24+commit.e67f0147.Emscripten.clang"
  },
  "schemaVersion": "2.0.0",
  "updatedAt": "2018-07-02T13:28:36.064Z"
}