{
  "contractName": "CasinoToken",
  "abi": [
    {
      "constant": true,
      "inputs": [],
      "name": "mintingFinished",
      "outputs": [
        {
          "name": "",
          "type": "bool"
        }
      ],
      "payable": false,
      "stateMutability": "view",
      "type": "function"
    },
    {
      "constant": true,
      "inputs": [],
      "name": "name",
      "outputs": [
        {
          "name": "",
          "type": "string"
        }
      ],
      "payable": false,
      "stateMutability": "view",
      "type": "function"
    },
    {
      "constant": true,
      "inputs": [],
      "name": "totalSupply",
      "outputs": [
        {
          "name": "",
          "type": "uint256"
        }
      ],
      "payable": false,
      "stateMutability": "view",
      "type": "function"
    },
    {
      "constant": true,
      "inputs": [],
      "name": "INITIAL_SUPPLY",
      "outputs": [
        {
          "name": "",
          "type": "uint256"
        }
      ],
      "payable": false,
      "stateMutability": "view",
      "type": "function"
    },
    {
      "constant": false,
      "inputs": [
        {
          "name": "_to",
          "type": "address"
        },
        {
          "name": "_amount",
          "type": "uint256"
        }
      ],
      "name": "mint",
      "outputs": [
        {
          "name": "",
          "type": "bool"
        }
      ],
      "payable": false,
      "stateMutability": "nonpayable",
      "type": "function"
    },
    {
      "constant": false,
      "inputs": [
        {
          "name": "_value",
          "type": "uint256"
        }
      ],
      "name": "burn",
      "outputs": [],
      "payable": false,
      "stateMutability": "nonpayable",
      "type": "function"
    },
    {
      "constant": true,
      "inputs": [
        {
          "name": "_owner",
          "type": "address"
        }
      ],
      "name": "balanceOf",
      "outputs": [
        {
          "name": "",
          "type": "uint256"
        }
      ],
      "payable": false,
      "stateMutability": "view",
      "type": "function"
    },
    {
      "constant": false,
      "inputs": [],
      "name": "renounceOwnership",
      "outputs": [],
      "payable": false,
      "stateMutability": "nonpayable",
      "type": "function"
    },
    {
      "constant": false,
      "inputs": [],
      "name": "finishMinting",
      "outputs": [
        {
          "name": "",
          "type": "bool"
        }
      ],
      "payable": false,
      "stateMutability": "nonpayable",
      "type": "function"
    },
    {
      "constant": true,
      "inputs": [],
      "name": "owner",
      "outputs": [
        {
          "name": "",
          "type": "address"
        }
      ],
      "payable": false,
      "stateMutability": "view",
      "type": "function"
    },
    {
      "constant": true,
      "inputs": [],
      "name": "symbol",
      "outputs": [
        {
          "name": "",
          "type": "string"
        }
      ],
      "payable": false,
      "stateMutability": "view",
      "type": "function"
    },
    {
      "constant": false,
      "inputs": [
        {
          "name": "_to",
          "type": "address"
        },
        {
          "name": "_value",
          "type": "uint256"
        }
      ],
      "name": "transfer",
      "outputs": [
        {
          "name": "success",
          "type": "bool"
        }
      ],
      "payable": false,
      "stateMutability": "nonpayable",
      "type": "function"
    },
    {
      "constant": false,
      "inputs": [
        {
          "name": "_to",
          "type": "address"
        },
        {
          "name": "_value",
          "type": "uint256"
        },
        {
          "name": "_data",
          "type": "bytes"
        }
      ],
      "name": "transfer",
      "outputs": [
        {
          "name": "success",
          "type": "bool"
        }
      ],
      "payable": false,
      "stateMutability": "nonpayable",
      "type": "function"
    },
    {
      "constant": false,
      "inputs": [
        {
          "name": "_newOwner",
          "type": "address"
        }
      ],
      "name": "transferOwnership",
      "outputs": [],
      "payable": false,
      "stateMutability": "nonpayable",
      "type": "function"
    },
    {
      "inputs": [],
      "payable": false,
      "stateMutability": "nonpayable",
      "type": "constructor"
    },
    {
      "anonymous": false,
      "inputs": [
        {
          "indexed": true,
          "name": "to",
          "type": "address"
        },
        {
          "indexed": false,
          "name": "amount",
          "type": "uint256"
        }
      ],
      "name": "Mint",
      "type": "event"
    },
    {
      "anonymous": false,
      "inputs": [],
      "name": "MintFinished",
      "type": "event"
    },
    {
      "anonymous": false,
      "inputs": [
        {
          "indexed": true,
          "name": "previousOwner",
          "type": "address"
        }
      ],
      "name": "OwnershipRenounced",
      "type": "event"
    },
    {
      "anonymous": false,
      "inputs": [
        {
          "indexed": true,
          "name": "previousOwner",
          "type": "address"
        },
        {
          "indexed": true,
          "name": "newOwner",
          "type": "address"
        }
      ],
      "name": "OwnershipTransferred",
      "type": "event"
    },
    {
      "anonymous": false,
      "inputs": [
        {
          "indexed": true,
          "name": "burner",
          "type": "address"
        },
        {
          "indexed": false,
          "name": "value",
          "type": "uint256"
        }
      ],
      "name": "Burn",
      "type": "event"
    },
    {
      "anonymous": false,
      "inputs": [
        {
          "indexed": true,
          "name": "_from",
          "type": "address"
        },
        {
          "indexed": true,
          "name": "_to",
          "type": "address"
        },
        {
          "indexed": false,
          "name": "_value",
          "type": "uint256"
        },
        {
          "indexed": true,
          "name": "_data",
          "type": "bytes"
        }
      ],
      "name": "Transfer",
      "type": "event"
    },
    {
      "anonymous": false,
      "inputs": [
        {
          "indexed": true,
          "name": "from",
          "type": "address"
        },
        {
          "indexed": true,
          "name": "to",
          "type": "address"
        },
        {
          "indexed": false,
          "name": "value",
          "type": "uint256"
        }
      ],
      "name": "Transfer",
      "type": "event"
    }
  ],
  "bytecode": "0x60806040526002805460a060020a60ff021916905534801561002057600080fd5b5060028054600160a060020a0319163390811790915561004a90602a640100000000610050810204565b5061018c565b600254600090600160a060020a0316331461006a57600080fd5b60025474010000000000000000000000000000000000000000900460ff161561009257600080fd5b6001546100ac908364010000000061080d61017982021704565b600155600160a060020a0383166000908152602081905260409020546100df908364010000000061080d61017982021704565b600160a060020a03841660008181526020818152604091829020939093558051858152905191927f0f6798a560793a54c3bcfe86a93cde1e73087d944c0ea20544137d412139688592918290030190a2604080518381529051600160a060020a038516916000917fddf252ad1be2c89b69c2b068fc378daa952ba7f163c4a11628f55a4df523b3ef9181900360200190a350600192915050565b8181018281101561018657fe5b92915050565b610ae18061019b6000396000f3006080604052600436106100cf5763ffffffff7c010000000000000000000000000000000000000000000000000000000060003504166305d2035b81146100d457806306fdde03146100fd57806318160ddd146101875780632ff2e9dc146101ae57806340c10f19146101c357806342966c68146101e757806370a0823114610201578063715018a6146102225780637d64bcb4146102375780638da5cb5b1461024c57806395d89b411461027d578063a9059cbb14610292578063be45fd62146102b6578063f2fde38b1461031f575b600080fd5b3480156100e057600080fd5b506100e9610340565b604080519115158252519081900360200190f35b34801561010957600080fd5b50610112610361565b6040805160208082528351818301528351919283929083019185019080838360005b8381101561014c578181015183820152602001610134565b50505050905090810190601f1680156101795780820380516001836020036101000a031916815260200191505b509250505060405180910390f35b34801561019357600080fd5b5061019c610398565b60408051918252519081900360200190f35b3480156101ba57600080fd5b5061019c61039e565b3480156101cf57600080fd5b506100e9600160a060020a03600435166024356103a3565b3480156101f357600080fd5b506101ff6004356104be565b005b34801561020d57600080fd5b5061019c600160a060020a03600435166105ae565b34801561022e57600080fd5b506101ff6105c9565b34801561024357600080fd5b506100e9610637565b34801561025857600080fd5b506102616106dd565b60408051600160a060020a039092168252519081900360200190f35b34801561028957600080fd5b506101126106ec565b34801561029e57600080fd5b506100e9600160a060020a0360043516602435610723565b3480156102c257600080fd5b50604080516020600460443581810135601f81018490048402850184019095528484526100e9948235600160a060020a03169460248035953695946064949201919081908401838280828437509497506107479650505050505050565b34801561032b57600080fd5b506101ff600160a060020a03600435166107ea565b60025474010000000000000000000000000000000000000000900460ff1681565b60408051808201909152600b81527f436173696e6f546f6b656e000000000000000000000000000000000000000000602082015281565b60015490565b602a81565b600254600090600160a060020a031633146103bd57600080fd5b60025474010000000000000000000000000000000000000000900460ff16156103e557600080fd5b6001546103f8908363ffffffff61080d16565b600155600160a060020a038316600090815260208190526040902054610424908363ffffffff61080d16565b600160a060020a03841660008181526020818152604091829020939093558051858152905191927f0f6798a560793a54c3bcfe86a93cde1e73087d944c0ea20544137d412139688592918290030190a2604080518381529051600160a060020a038516916000917fddf252ad1be2c89b69c2b068fc378daa952ba7f163c4a11628f55a4df523b3ef9181900360200190a350600192915050565b336000908152602081905260408120548211156104da57600080fd5b50336000818152602081905260409020546104fb908363ffffffff61082016565b600160a060020a038216600090815260208190526040902055600154610527908363ffffffff61082016565b600155604080518381529051600160a060020a038316917fcc16f5dbb4873280815c1ee09dbd06736cffcc184412cf7a71a0fdb75d397ca5919081900360200190a2604080518381529051600091600160a060020a038416917fddf252ad1be2c89b69c2b068fc378daa952ba7f163c4a11628f55a4df523b3ef9181900360200190a35050565b600160a060020a031660009081526020819052604090205490565b600254600160a060020a031633146105e057600080fd5b600254604051600160a060020a03909116907ff8df31144d9c2f0f6b59d69b8b98abd5459d07f2742c4df920b25aae33c6482090600090a26002805473ffffffffffffffffffffffffffffffffffffffff19169055565b600254600090600160a060020a0316331461065157600080fd5b60025474010000000000000000000000000000000000000000900460ff161561067957600080fd5b6002805474ff00000000000000000000000000000000000000001916740100000000000000000000000000000000000000001790556040517fae5184fba832cb2b1f702aca6117b8d265eaf03ad33eb133f19dde0f5920fa0890600090a150600190565b600254600160a060020a031681565b60408051808201909152600481527ff09f8eb000000000000000000000000000000000000000000000000000000000602082015281565b604080516000808252602082019092526107409084908490610747565b9392505050565b6000600160a060020a038416151561075e57600080fd5b3360009081526020819052604090205483111561077a57600080fd5b600160a060020a0384166000908152602081905260409020546107a3818563ffffffff61080d16565b116107ad57600080fd5b6107b78484610832565b15156107bf57fe5b6107c884610913565b156107e0576107d93385858561091b565b9050610740565b5060019392505050565b600254600160a060020a0316331461080157600080fd5b61080a81610a37565b50565b8181018281101561081a57fe5b92915050565b60008282111561082c57fe5b50900390565b6000600160a060020a038316151561084957600080fd5b3360009081526020819052604090205482111561086557600080fd5b33600090815260208190526040902054610885908363ffffffff61082016565b3360009081526020819052604080822092909255600160a060020a038516815220546108b7908363ffffffff61080d16565b600160a060020a038416600081815260208181526040918290209390935580518581529051919233927fddf252ad1be2c89b69c2b068fc378daa952ba7f163c4a11628f55a4df523b3ef9281900390910190a350600192915050565b6000903b1190565b6040517f4c1230190000000000000000000000000000000000000000000000000000000081523360048201818152600160a060020a03878116602485015260448401869052608060648501908152855160848601528551600095899593861694634c12301994938c938b938b93929160a49091019060208501908083838f5b838110156109b257818101518382015260200161099a565b50505050905090810190601f1680156109df5780820380516001836020036101000a031916815260200191505b5095505050505050602060405180830381600087803b158015610a0157600080fd5b505af1158015610a15573d6000803e3d6000fd5b505050506040513d6020811015610a2b57600080fd5b50519695505050505050565b600160a060020a0381161515610a4c57600080fd5b600254604051600160a060020a038084169216907f8be0079c531659141344cd1fd0a4f28419497f9722a3daafe3b4186f6b6457e090600090a36002805473ffffffffffffffffffffffffffffffffffffffff1916600160a060020a03929092169190911790555600a165627a7a7230582088adcb2beea94c4fa35afa36f9651abf6328bb23649b5a5cc2749186dcbd50490029",
  "source": "pragma solidity ^0.4.24;\n\nimport \"../erc223/Basic223Token.sol\";\nimport \"../erc223/Burnable223Token.sol\";\nimport \"../erc223/Mintable223Token.sol\";\n\ncontract CasinoToken is Basic223Token, Burnable223Token, Mintable223Token {\n\n    string public constant name = \"CasinoToken\";\n    string public constant symbol = \"🎰\";\n\n    uint public constant INITIAL_SUPPLY = 42;\n\n    constructor() public {\n        mint(msg.sender, INITIAL_SUPPLY);\n    }\n\n}\n",
  "sourcePath": "/Users/bountin/Projects/Uni/smart_contract_casino/casino-contract/contracts/casino/CasinoToken.sol",
  "compiler": {
    "name": "solc",
    "version": "0.4.24+commit.e67f0147.Emscripten.clang"
  },
  "schemaVersion": "2.0.0",
  "updatedAt": "2018-07-02T13:28:35.579Z"
}