{
  "contractName": "Casino",
  "abi": [
    {
      "constant": true,
      "inputs": [
        {
          "name": "addr",
          "type": "address"
        },
        {
          "name": "roleName",
          "type": "string"
        }
      ],
      "name": "checkRole",
      "outputs": [],
      "payable": false,
      "stateMutability": "view",
      "type": "function"
    },
    {
      "constant": true,
      "inputs": [
        {
          "name": "addr",
          "type": "address"
        },
        {
          "name": "roleName",
          "type": "string"
        }
      ],
      "name": "hasRole",
      "outputs": [
        {
          "name": "",
          "type": "bool"
        }
      ],
      "payable": false,
      "stateMutability": "view",
      "type": "function"
    },
    {
      "constant": false,
      "inputs": [
        {
          "name": "_newSuperuser",
          "type": "address"
        }
      ],
      "name": "transferSuperuser",
      "outputs": [],
      "payable": false,
      "stateMutability": "nonpayable",
      "type": "function"
    },
    {
      "constant": false,
      "inputs": [],
      "name": "renounceOwnership",
      "outputs": [],
      "payable": false,
      "stateMutability": "nonpayable",
      "type": "function"
    },
    {
      "constant": true,
      "inputs": [],
      "name": "owner",
      "outputs": [
        {
          "name": "",
          "type": "address"
        }
      ],
      "payable": false,
      "stateMutability": "view",
      "type": "function"
    },
    {
      "constant": true,
      "inputs": [
        {
          "name": "_addr",
          "type": "address"
        }
      ],
      "name": "isSuperuser",
      "outputs": [
        {
          "name": "",
          "type": "bool"
        }
      ],
      "payable": false,
      "stateMutability": "view",
      "type": "function"
    },
    {
      "constant": true,
      "inputs": [],
      "name": "CASINO_TOKEN_SUPPLY",
      "outputs": [
        {
          "name": "",
          "type": "string"
        }
      ],
      "payable": false,
      "stateMutability": "view",
      "type": "function"
    },
    {
      "constant": true,
      "inputs": [],
      "name": "ROLE_SUPERUSER",
      "outputs": [
        {
          "name": "",
          "type": "string"
        }
      ],
      "payable": false,
      "stateMutability": "view",
      "type": "function"
    },
    {
      "constant": true,
      "inputs": [],
      "name": "ROLE_ORACLE",
      "outputs": [
        {
          "name": "",
          "type": "string"
        }
      ],
      "payable": false,
      "stateMutability": "view",
      "type": "function"
    },
    {
      "constant": false,
      "inputs": [
        {
          "name": "_newOwner",
          "type": "address"
        }
      ],
      "name": "transferOwnership",
      "outputs": [],
      "payable": false,
      "stateMutability": "nonpayable",
      "type": "function"
    },
    {
      "inputs": [
        {
          "name": "_initialCasinoTokenPrice",
          "type": "uint256"
        }
      ],
      "payable": false,
      "stateMutability": "nonpayable",
      "type": "constructor"
    },
    {
      "anonymous": false,
      "inputs": [
        {
          "indexed": false,
          "name": "_amount",
          "type": "uint256"
        }
      ],
      "name": "CasinoTokensSupplied",
      "type": "event"
    },
    {
      "anonymous": false,
      "inputs": [
        {
          "indexed": false,
          "name": "_timestamp",
          "type": "uint256"
        },
        {
          "indexed": false,
          "name": "_price",
          "type": "uint256"
        }
      ],
      "name": "OracleInformationReceived",
      "type": "event"
    },
    {
      "anonymous": false,
      "inputs": [
        {
          "indexed": false,
          "name": "_address",
          "type": "address"
        },
        {
          "indexed": false,
          "name": "_betPlacedTimestamp",
          "type": "uint256"
        },
        {
          "indexed": false,
          "name": "_betTimestamp",
          "type": "uint256"
        },
        {
          "indexed": false,
          "name": "_rise",
          "type": "bool"
        }
      ],
      "name": "BetPlaced",
      "type": "event"
    },
    {
      "anonymous": false,
      "inputs": [
        {
          "indexed": false,
          "name": "addr",
          "type": "address"
        },
        {
          "indexed": false,
          "name": "roleName",
          "type": "string"
        }
      ],
      "name": "RoleAdded",
      "type": "event"
    },
    {
      "anonymous": false,
      "inputs": [
        {
          "indexed": false,
          "name": "addr",
          "type": "address"
        },
        {
          "indexed": false,
          "name": "roleName",
          "type": "string"
        }
      ],
      "name": "RoleRemoved",
      "type": "event"
    },
    {
      "anonymous": false,
      "inputs": [
        {
          "indexed": true,
          "name": "previousOwner",
          "type": "address"
        }
      ],
      "name": "OwnershipRenounced",
      "type": "event"
    },
    {
      "anonymous": false,
      "inputs": [
        {
          "indexed": true,
          "name": "previousOwner",
          "type": "address"
        },
        {
          "indexed": true,
          "name": "newOwner",
          "type": "address"
        }
      ],
      "name": "OwnershipTransferred",
      "type": "event"
    },
    {
      "constant": false,
      "inputs": [
        {
          "name": "_address",
          "type": "address"
        }
      ],
      "name": "setCasinoTokenContractAddress",
      "outputs": [],
      "payable": false,
      "stateMutability": "nonpayable",
      "type": "function"
    },
    {
      "constant": true,
      "inputs": [],
      "name": "casinoTokenContractAddress",
      "outputs": [
        {
          "name": "",
          "type": "address"
        }
      ],
      "payable": false,
      "stateMutability": "view",
      "type": "function"
    },
    {
      "constant": false,
      "inputs": [
        {
          "name": "_newCasinoTokenPrice",
          "type": "uint256"
        }
      ],
      "name": "setCasinoTokenPrice",
      "outputs": [],
      "payable": false,
      "stateMutability": "nonpayable",
      "type": "function"
    },
    {
      "constant": true,
      "inputs": [],
      "name": "getCasinoTokenPrice",
      "outputs": [
        {
          "name": "",
          "type": "uint256"
        }
      ],
      "payable": false,
      "stateMutability": "view",
      "type": "function"
    },
    {
      "constant": false,
      "inputs": [],
      "name": "buyCasinoToken",
      "outputs": [],
      "payable": true,
      "stateMutability": "payable",
      "type": "function"
    },
    {
      "constant": false,
      "inputs": [
        {
          "name": "_sender",
          "type": "address"
        },
        {
          "name": "_origin",
          "type": "address"
        },
        {
          "name": "_value",
          "type": "uint256"
        },
        {
          "name": "_data",
          "type": "bytes"
        }
      ],
      "name": "tokenFallback",
      "outputs": [
        {
          "name": "success",
          "type": "bool"
        }
      ],
      "payable": false,
      "stateMutability": "nonpayable",
      "type": "function"
    },
    {
      "constant": true,
      "inputs": [],
      "name": "getCasinoTokenBalance",
      "outputs": [
        {
          "name": "",
          "type": "uint256"
        }
      ],
      "payable": false,
      "stateMutability": "view",
      "type": "function"
    },
    {
      "constant": false,
      "inputs": [
        {
          "name": "_amount",
          "type": "uint256"
        },
        {
          "name": "_rise",
          "type": "bool"
        }
      ],
      "name": "placeBet",
      "outputs": [],
      "payable": false,
      "stateMutability": "nonpayable",
      "type": "function"
    },
    {
      "constant": false,
      "inputs": [],
      "name": "closeFinishedBets",
      "outputs": [],
      "payable": false,
      "stateMutability": "nonpayable",
      "type": "function"
    },
    {
      "constant": false,
      "inputs": [
        {
          "name": "_receiver",
          "type": "address"
        },
        {
          "name": "_amount",
          "type": "uint256"
        }
      ],
      "name": "payout",
      "outputs": [],
      "payable": false,
      "stateMutability": "nonpayable",
      "type": "function"
    },
    {
      "constant": false,
      "inputs": [
        {
          "name": "_timestamp",
          "type": "uint256"
        },
        {
          "name": "_price",
          "type": "uint256"
        }
      ],
      "name": "setInformation",
      "outputs": [],
      "payable": false,
      "stateMutability": "nonpayable",
      "type": "function"
    }
  ],
  "bytecode": "0x608060405234801561001057600080fd5b5060405160208061118a833981016040818152915160008054600160a060020a03191633908117909155838301909352600982527f737570657275736572000000000000000000000000000000000000000000000060208301529161007d916401000000006100dd810204565b6000811161008a57600080fd5b600381905560408051808201909152600681527f6f7261636c65000000000000000000000000000000000000000000000000000060208201526100d79033906401000000006100dd810204565b50610230565b610154826001836040518082805190602001908083835b602083106101135780518252601f1990920191602091820191016100f4565b51815160209384036101000a600019018019909216911617905292019485525060405193849003019092209291505064010000000061020b8102610eda1704565b7fbfec83d64eaa953f2708271a023ab9ee82057f8f3578d548c1a4ba0b5b70048982826040518083600160a060020a0316600160a060020a0316815260200180602001828103825283818151815260200191508051906020019080838360005b838110156101cc5781810151838201526020016101b4565b50505050905090810190601f1680156101f95780820380516001836020036101000a031916815260200191505b50935050505060405180910390a15050565b600160a060020a0316600090815260209190915260409020805460ff19166001179055565b610f4b8061023f6000396000f30060806040526004361061011c5763ffffffff7c01000000000000000000000000000000000000000000000000000000006000350416630988ca8c8114610121578063117de2fd1461018a5780631c46bf41146101ae578063217fe6c6146101cf57806336eca4d91461024a5780634c1230191461027157806357c393fa146102e0578063715018a61461030157806383634daa146103165780638da5cb5b1461032b5780639ed9c74d1461035c578063bceee05e14610379578063cf0997961461039a578063da1fd9b714610424578063dd1ade5e14610439578063ebb4f48414610441578063ebed73e914610456578063f01737031461046e578063f2fde38b14610483578063fbe67156146104a4578063fe4b8f16146104b9575b600080fd5b34801561012d57600080fd5b5060408051602060046024803582810135601f8101859004850286018501909652858552610188958335600160a060020a03169536956044949193909101919081908401838280828437509497506104d49650505050505050565b005b34801561019657600080fd5b50610188600160a060020a0360043516602435610542565b3480156101ba57600080fd5b50610188600160a060020a0360043516610594565b3480156101db57600080fd5b5060408051602060046024803582810135601f8101859004850286018501909652858552610236958335600160a060020a03169536956044949193909101919081908401838280828437509497506105eb9650505050505050565b604080519115158252519081900360200190f35b34801561025657600080fd5b5061025f61065e565b60408051918252519081900360200190f35b34801561027d57600080fd5b50604080516020601f60643560048181013592830184900484028501840190955281845261023694600160a060020a0381358116956024803590921695604435953695608494019181908401838280828437509497506106649650505050505050565b3480156102ec57600080fd5b50610188600160a060020a03600435166107df565b34801561030d57600080fd5b5061018861087e565b34801561032257600080fd5b5061025f6108ea565b34801561033757600080fd5b506103406108ef565b60408051600160a060020a039092168252519081900360200190f35b34801561036857600080fd5b5061018860043560243515156108fe565b34801561038557600080fd5b50610236600160a060020a036004351661095d565b3480156103a657600080fd5b506103af610992565b6040805160208082528351818301528351919283929083019185019080838360005b838110156103e95781810151838201526020016103d1565b50505050905090810190601f1680156104165780820380516001836020036101000a031916815260200191505b509250505060405180910390f35b34801561043057600080fd5b506101886109c9565b6101886109cb565b34801561044d57600080fd5b506103af610ab1565b34801561046257600080fd5b50610188600435610ad6565b34801561047a57600080fd5b506103af610b10565b34801561048f57600080fd5b50610188600160a060020a0360043516610b47565b3480156104b057600080fd5b50610340610b78565b3480156104c557600080fd5b50610188600435602435610b87565b61053e826001836040518082805190602001908083835b6020831061050a5780518252601f1990920191602091820191016104eb565b51815160209384036101000a6000190180199092169116179052920194855250604051938490030190922092915050610c05565b5050565b600054600160a060020a0316331461055957600080fd5b604051600160a060020a0383169082156108fc029083906000818181858888f1935050505015801561058f573d6000803e3d6000fd5b505050565b600054600160a060020a03163314806105b157506105b13361095d565b15156105bc57600080fd5b6002805473ffffffffffffffffffffffffffffffffffffffff1916600160a060020a0392909216919091179055565b6000610657836001846040518082805190602001908083835b602083106106235780518252601f199092019160209182019101610604565b51815160209384036101000a6000190180199092169116179052920194855250604051938490030190922092915050610c1a565b9392505050565b60035490565b600254600090600160a060020a0316331461067e57600080fd5b60408051808201825260138082527f434153494e4f5f544f4b454e5f535550504c5900000000000000000000000000602083019081529251919282918083835b602083106106dd5780518252601f1990920191602091820191016106be565b51815160209384036101000a6000190180199092169116179052604051919093018190038120875190955087945090928392508401908083835b602083106107365780518252601f199092019160209182019101610717565b6001836020036101000a03801982511681845116808217855250505050505090500191505060405180910390206000191614156107d357600054600160a060020a038681169116148061078d575061078d8561095d565b151561079857600080fd5b6040805184815290517f8eda3c6b9417c53878cf462ff5337c5b951237fe9c56ceb19248200f83fe8c779181900360200190a15060016107d7565b5060005b949350505050565b61080c33604080519081016040528060098152602001600080516020610f008339815191528152506104d4565b600160a060020a038116151561082157600080fd5b61084e33604080519081016040528060098152602001600080516020610f00833981519152815250610c39565b61087b81604080519081016040528060098152602001600080516020610f00833981519152815250610d5a565b50565b600054600160a060020a0316331461089557600080fd5b60008054604051600160a060020a03909116917ff8df31144d9c2f0f6b59d69b8b98abd5459d07f2742c4df920b25aae33c6482091a26000805473ffffffffffffffffffffffffffffffffffffffff19169055565b600090565b600054600160a060020a031681565b6000600a83101561090e57600080fd5b5060408051338152426020820152607b818301819052831515606083015291517feecad545a2ea4b549fd96ca809f2218e8daec7f3214b4813f4cddbc406ea803e9181900360800190a1505050565b600061098c82604080519081016040528060098152602001600080516020610f008339815191528152506105eb565b92915050565b60408051808201909152601381527f434153494e4f5f544f4b454e5f535550504c5900000000000000000000000000602082015281565b565b6000600354348115156109da57fe5b049050600081111561087b57600254604080517fbe45fd620000000000000000000000000000000000000000000000000000000081523360048201526024810184905260606044820152600e60648201527f476f6f64204c75636b20f09f8d8000000000000000000000000000000000000060848201529051600160a060020a039092169163be45fd629160a4808201926020929091908290030181600087803b158015610a8757600080fd5b505af1158015610a9b573d6000803e3d6000fd5b505050506040513d602081101561058f57600080fd5b6040805180820190915260098152600080516020610f00833981519152602082015281565b600054600160a060020a0316331480610af35750610af33361095d565b1515610afe57600080fd5b60008111610b0b57600080fd5b600355565b60408051808201909152600681527f6f7261636c650000000000000000000000000000000000000000000000000000602082015281565b600054600160a060020a0316331480610b645750610b643361095d565b1515610b6f57600080fd5b61087b81610e3b565b600254600160a060020a031690565b610bc6336040805190810160405280600681526020017f6f7261636c6500000000000000000000000000000000000000000000000000008152506104d4565b604080518381526020810183905281517f364bb78414e01a80e9a9e528d8f3c18efc790d7c6cd14e63fab523f2e1623233929181900390910190a15050565b610c0f8282610c1a565b151561053e57600080fd5b600160a060020a03166000908152602091909152604090205460ff1690565b610ca3826001836040518082805190602001908083835b60208310610c6f5780518252601f199092019160209182019101610c50565b51815160209384036101000a6000190180199092169116179052920194855250604051938490030190922092915050610eb8565b7fd211483f91fc6eff862467f8de606587a30c8fc9981056f051b897a418df803a82826040518083600160a060020a0316600160a060020a0316815260200180602001828103825283818151815260200191508051906020019080838360005b83811015610d1b578181015183820152602001610d03565b50505050905090810190601f168015610d485780820380516001836020036101000a031916815260200191505b50935050505060405180910390a15050565b610dc4826001836040518082805190602001908083835b60208310610d905780518252601f199092019160209182019101610d71565b51815160209384036101000a6000190180199092169116179052920194855250604051938490030190922092915050610eda565b7fbfec83d64eaa953f2708271a023ab9ee82057f8f3578d548c1a4ba0b5b70048982826040518083600160a060020a0316600160a060020a03168152602001806020018281038252838181518152602001915080519060200190808383600083811015610d1b578181015183820152602001610d03565b600160a060020a0381161515610e5057600080fd5b60008054604051600160a060020a03808516939216917f8be0079c531659141344cd1fd0a4f28419497f9722a3daafe3b4186f6b6457e091a36000805473ffffffffffffffffffffffffffffffffffffffff1916600160a060020a0392909216919091179055565b600160a060020a0316600090815260209190915260409020805460ff19169055565b600160a060020a0316600090815260209190915260409020805460ff1916600117905556007375706572757365720000000000000000000000000000000000000000000000a165627a7a723058201ddc7ac9e6afef11e966422ded1f767b324c42ccb5a11b2e51d9dfed0f6171220029",
  "source": "pragma solidity ^0.4.24;\n\nimport \"openzeppelin-solidity/contracts/math/SafeMath.sol\";\nimport \"openzeppelin-solidity/contracts/ownership/Superuser.sol\";\n\nimport \"../erc223/ERC223Receiver.sol\";\n\nimport \"./CasinoToken.sol\";\n\ncontract Casino is Superuser, ERC223Receiver {\n\n    string public constant ROLE_ORACLE = \"oracle\";\n    string public constant CASINO_TOKEN_SUPPLY = \"CASINO_TOKEN_SUPPLY\";\n\n    uint256 private constant MIN_BET_TIMESTAMP_IN_FUTURE = 60 * 25; // 15 Minutes in Seconds\n    uint256 private constant MAX_BET_TIMESTAMP_IN_FUTURE = 60 * 60; // 60 Minutes in Seconds\n\n    using SafeMath for uint;\n\n    CasinoToken internal casinoTokenContract;\n    uint256 internal casinoTokenPrice;\n\n    constructor(uint256 _initialCasinoTokenPrice) public {\n        require(_initialCasinoTokenPrice > 0);\n        casinoTokenPrice = _initialCasinoTokenPrice;\n        addRole(msg.sender, ROLE_ORACLE);\n    }\n\n    event CasinoTokensSupplied(uint256 _amount);\n    event OracleInformationReceived(uint256 _timestamp, uint256 _price);\n    event BetPlaced(address _address, uint256 _betPlacedTimestamp, uint256 _betTimestamp, bool _rise);\n\n    // Casino Token\n\n    function setCasinoTokenContractAddress(address _address) external onlyOwnerOrSuperuser {\n        casinoTokenContract = CasinoToken(_address);\n    }\n\n    function casinoTokenContractAddress() external view returns (address) {\n        return casinoTokenContract;\n    }\n\n    function setCasinoTokenPrice(uint256 _newCasinoTokenPrice) external onlyOwnerOrSuperuser {\n        require(_newCasinoTokenPrice > 0);\n        casinoTokenPrice = _newCasinoTokenPrice;\n    }\n\n    function getCasinoTokenPrice() external view returns (uint256) {\n        return casinoTokenPrice;\n    }\n\n    function buyCasinoToken() external payable {\n        uint tokens = msg.value / casinoTokenPrice;\n        if (tokens > 0) {\n            casinoTokenContract.transfer(msg.sender, tokens, \"Good Luck ðŸ€\");\n        }\n    }\n\n    function tokenFallback(address _sender, address _origin, uint256 _value, bytes _data) public returns (bool success) {\n        require(CasinoToken(msg.sender) == casinoTokenContract);\n        // check if token is supply\n        if (keccak256(_data) == keccak256(CASINO_TOKEN_SUPPLY)) {\n            require(_sender == owner || isSuperuser(_sender));\n            emit CasinoTokensSupplied(_value);\n            return true;\n        }\n        // TODO: add tokens from user to his balance\n        // TODO: add a possibility to sell tokens\n        return false;\n    }\n\n    function getCasinoTokenBalance() external view returns (uint256) {\n        // TODO: return the users casino token balance\n        return 0;\n    }\n\n    // Bet placement\n\n    function placeBet(uint256 _amount, bool _rise) {\n        require(_amount >= 10);\n        uint _betTimestamp = 123;\n//        require(_betTimestamp >= block.timestamp + MIN_BET_TIMESTAMP_IN_FUTURE);\n//        require(_betTimestamp <= block.timestamp + MAX_BET_TIMESTAMP_IN_FUTURE);\n        // TODO:\n        // - Set _betTimestamp\n        // - check if the user has given amount of tokens\n        // - remove given amount of tokens from user balance\n        // - store bet placement\n        emit BetPlaced(msg.sender, block.timestamp, _betTimestamp, _rise);\n    }\n\n    function closeFinishedBets() {\n        // TODO:\n        // - close all finished bets of the user\n        // - close all overdue bets\n        // - transfer resulting tokens to user\n    }\n\n    // Payout\n\n    function payout(address _receiver, uint256 _amount) external onlyOwner {\n        _receiver.transfer(_amount);\n    }\n\n    // Oracle\n\n    function setInformation(uint256 _timestamp, uint256 _price) external onlyOracle {\n        // TODO: store oracle information mapping from timestamp to price\n        emit OracleInformationReceived(_timestamp, _price);\n    }\n\n    modifier onlyOracle() {\n        checkRole(msg.sender, ROLE_ORACLE);\n        _;\n    }\n\n}\n",
  "sourcePath": "/Users/bountin/Projects/Uni/smart_contract_casino/casino-contract/contracts/casino/Casino.sol",
  "compiler": {
    "name": "solc",
    "version": "0.4.24+commit.e67f0147.Emscripten.clang"
  },
  "schemaVersion": "2.0.0",
  "updatedAt": "2018-07-03T18:49:57.151Z"
}